{
  "contractName": "Factory",
  "abi": [
    {
      "inputs": [
        {
          "internalType": "string",
          "name": "",
          "type": "string"
        }
      ],
      "name": "userNames",
      "outputs": [
        {
          "internalType": "contract UserContract",
          "name": "",
          "type": "address"
        }
      ],
      "stateMutability": "view",
      "type": "function"
    },
    {
      "inputs": [
        {
          "internalType": "address",
          "name": "",
          "type": "address"
        }
      ],
      "name": "users",
      "outputs": [
        {
          "internalType": "contract UserContract",
          "name": "",
          "type": "address"
        }
      ],
      "stateMutability": "view",
      "type": "function"
    },
    {
      "inputs": [
        {
          "internalType": "address",
          "name": "_address",
          "type": "address"
        }
      ],
      "name": "isRegistered",
      "outputs": [
        {
          "internalType": "bool",
          "name": "",
          "type": "bool"
        },
        {
          "internalType": "contract UserContract",
          "name": "",
          "type": "address"
        }
      ],
      "stateMutability": "view",
      "type": "function"
    },
    {
      "inputs": [
        {
          "internalType": "string",
          "name": "_name",
          "type": "string"
        }
      ],
      "name": "addUser",
      "outputs": [
        {
          "internalType": "contract UserContract",
          "name": "",
          "type": "address"
        }
      ],
      "stateMutability": "nonpayable",
      "type": "function"
    },
    {
      "inputs": [
        {
          "internalType": "contract MusicContract",
          "name": "_musicContract",
          "type": "address"
        }
      ],
      "name": "addMusicToLibrary",
      "outputs": [],
      "stateMutability": "nonpayable",
      "type": "function"
    },
    {
      "inputs": [],
      "name": "getLibrary",
      "outputs": [
        {
          "internalType": "contract MusicContract[]",
          "name": "",
          "type": "address[]"
        }
      ],
      "stateMutability": "view",
      "type": "function"
    }
  ],
  "bytecode": "0x608060405234801561001057600080fd5b50612567806100206000396000f3fe608060405234801561001057600080fd5b50600436106100625760003560e01c806318b8275a146100675780635471e23714610129578063677cd575146101515780637678922e146101f7578063a87430ba1461024f578063c3c5a54714610275575b600080fd5b61010d6004803603602081101561007d57600080fd5b81019060208101813564010000000081111561009857600080fd5b8201836020820111156100aa57600080fd5b803590602001918460018302840111640100000000831117156100cc57600080fd5b91908080601f0160208091040260200160405190810160405280939291908181526020018383808284376000920191909152509295506102be945050505050565b604080516001600160a01b039092168252519081900360200190f35b61014f6004803603602081101561013f57600080fd5b50356001600160a01b031661058a565b005b61010d6004803603602081101561016757600080fd5b81019060208101813564010000000081111561018257600080fd5b82018360208201111561019457600080fd5b803590602001918460018302840111640100000000831117156101b657600080fd5b91908080601f0160208091040260200160405190810160405280939291908181526020018383808284376000920191909152509295506105dc945050505050565b6101ff610602565b60408051602080825283518183015283519192839290830191858101910280838360005b8381101561023b578181015183820152602001610223565b505050509050019250505060405180910390f35b61010d6004803603602081101561026557600080fd5b50356001600160a01b0316610664565b61029b6004803603602081101561028b57600080fd5b50356001600160a01b031661067f565b6040805192151583526001600160a01b0390911660208301528051918290030190f35b60006102c9336106a0565b1561031b576040805162461bcd60e51b815260206004820152601860248201527f436f6e74726163742063616e2774206265206120557365720000000000000000604482015290519081900360640190fd5b336000908152602081905260409020546001600160a01b03161561037c576040805162461bcd60e51b81526020600482015260136024820152725573657220616c72656164792065786973747360681b604482015290519081900360640190fd5b60006001600160a01b03166001836040518082805190602001908083835b602083106103b95780518252601f19909201916020918201910161039a565b51815160209384036101000a60001901801990921691161790529201948552506040519384900301909220546001600160a01b031692909214915061043d9050576040805162461bcd60e51b81526020600482015260136024820152724e616d6520616c726561647920696e2055736560681b604482015290519081900360640190fd5b6000823360405161044d906106ac565b6001600160a01b03821660208083019190915260408083528451908301528351829160608301919086019080838360005b8381101561049657818101518382015260200161047e565b50505050905090810190601f1680156104c35780820380516001836020036101000a031916815260200191505b509350505050604051809103906000f0801580156104e5573d6000803e3d6000fd5b509050806001846040518082805190602001908083835b6020831061051b5780518252601f1990920191602091820191016104fc565b51815160209384036101000a60001901801990921691161790529201948552506040805194859003820190942080546001600160a01b03199081166001600160a01b03978816179091553360009081529182905293902080549093169385169390931790915550909392505050565b600280546001810182556000919091527f405787fa12a823e0f2b7631cc41b3ba8828b3321ca811111fa75cd3aa3bb5ace0180546001600160a01b0319166001600160a01b0392909216919091179055565b80516020818301810180516001825292820191909301209152546001600160a01b031681565b6060600280548060200260200160405190810160405280929190818152602001828054801561065a57602002820191906000526020600020905b81546001600160a01b0316815260019091019060200180831161063c575b5050505050905090565b6000602081905290815260409020546001600160a01b031681565b6001600160a01b039081166000908152602081905260409020541680151591565b3b63ffffffff16151590565b611e78806106ba8339019056fe60806040523480156200001157600080fd5b5060405162001e7838038062001e78833981810160405260408110156200003757600080fd5b81019080805160405193929190846401000000008211156200005857600080fd5b9083019060208201858111156200006e57600080fd5b82516401000000008111828201881017156200008957600080fd5b82525081516020918201929091019080838360005b83811015620000b85781810151838201526020016200009e565b50505050905090810190601f168015620000e65780820380516001836020036101000a031916815260200191505b5060405260200151915060009050620001076001600160e01b036200018416565b600080546001600160a01b0319166001600160a01b03831690811782556040519293509160008051602062001e58833981519152908290a350600280546001600160a01b0319163317905581516200016790600190602085019062000290565b506200017c816001600160e01b036200018916565b505062000332565b335b90565b6200019c6001600160e01b036200018416565b6000546001600160a01b03908116911614620001ff576040805162461bcd60e51b815260206004820181905260248201527f4f776e61626c653a2063616c6c6572206973206e6f7420746865206f776e6572604482015290519081900360640190fd5b6001600160a01b038116620002465760405162461bcd60e51b815260040180806020018281038252602681526020018062001e326026913960400191505060405180910390fd5b600080546040516001600160a01b038085169392169160008051602062001e5883398151915291a3600080546001600160a01b0319166001600160a01b0392909216919091179055565b828054600181600116156101000203166002900490600052602060002090601f016020900481019282601f10620002d357805160ff191683800117855562000303565b8280016001018555821562000303579182015b8281111562000303578251825591602001919060010190620002e6565b506200031192915062000315565b5090565b6200018691905b808211156200031157600081556001016200031c565b611af080620003426000396000f3fe60806040523480156200001157600080fd5b5060043610620000a05760003560e01c8063c45a0155116200006f578063c45a015514620001b5578063c6ab113114620001bf578063cf95aed614620001c9578063e25b8b5e1462000301578063f2fde38b146200032a57620000a0565b806306fdde0314620000a5578063715018a614620001275780638da5cb5b1462000133578063a3dc8ccf1462000159575b600080fd5b620000af62000353565b6040805160208082528351818301528351919283929083019185019080838360005b83811015620000eb578181015183820152602001620000d1565b50505050905090810190601f168015620001195780820380516001836020036101000a031916815260200191505b509250505060405180910390f35b62000131620003e4565b005b6200013d6200049b565b604080516001600160a01b039092168252519081900360200190f35b62000163620004aa565b60408051602080825283518183015283519192839290830191858101910280838360005b83811015620001a157818101518382015260200162000187565b505050509050019250505060405180910390f35b6200013d6200050e565b620001636200051d565b6200013160048036036060811015620001e157600080fd5b810190602081018135640100000000811115620001fd57600080fd5b8201836020820111156200021057600080fd5b803590602001918460018302840111640100000000831117156200023357600080fd5b91908080601f01602080910402602001604051908101604052809392919081815260200183838082843760009201919091525092959493602081019350359150506401000000008111156200028757600080fd5b8201836020820111156200029a57600080fd5b80359060200191846001830284011164010000000083111715620002bd57600080fd5b91908080601f01602080910402602001604051908101604052809392919081815260200183838082843760009201919091525092955050913592506200057f915050565b62000131600480360360208110156200031957600080fd5b50356001600160a01b0316620007df565b62000131600480360360208110156200034257600080fd5b50356001600160a01b031662000883565b60018054604080516020600284861615610100026000190190941693909304601f81018490048402820184019092528181529291830182828015620003dc5780601f10620003b057610100808354040283529160200191620003dc565b820191906000526020600020905b815481529060010190602001808311620003be57829003601f168201915b505050505081565b620003ee62000992565b6000546001600160a01b0390811691161462000451576040805162461bcd60e51b815260206004820181905260248201527f4f776e61626c653a2063616c6c6572206973206e6f7420746865206f776e6572604482015290519081900360640190fd5b600080546040516001600160a01b03909116907f8be0079c531659141344cd1fd0a4f28419497f9722a3daafe3b4186f6b6457e0908390a3600080546001600160a01b0319169055565b6000546001600160a01b031690565b606060048054806020026020016040519081016040528092919081815260200182805480156200050457602002820191906000526020600020905b81546001600160a01b03168152600190910190602001808311620004e5575b5050505050905090565b6002546001600160a01b031681565b6060600380548060200260200160405190810160405280929190818152602001828054801562000504576020028201919060005260206000209081546001600160a01b03168152600190910190602001808311620004e5575050505050905090565b6200058962000992565b6000546001600160a01b03908116911614620005ec576040805162461bcd60e51b815260206004820181905260248201527f4f776e61626c653a2063616c6c6572206973206e6f7420746865206f776e6572604482015290519081900360640190fd5b6000838383620005fb6200049b565b6002546040516001600160a01b0390911690620006189062000996565b604081018490526001600160a01b0380841660608301528216608082015260a08082528651908201528551819060208083019160c08401918a019080838360005b838110156200067357818101518382015260200162000659565b50505050905090810190601f168015620006a15780820380516001836020036101000a031916815260200191505b50838103825287518152875160209182019189019080838360005b83811015620006d6578181015183820152602001620006bc565b50505050905090810190601f168015620007045780820380516001836020036101000a031916815260200191505b50975050505050505050604051809103906000f0801580156200072b573d6000803e3d6000fd5b506003805460018101825560009182527fc2575a0e9e593c00f959f8c92f12db2869c3395a3b0502d05e2516446f71f85b0180546001600160a01b0319166001600160a01b0384811691821790925560025460408051635471e23760e01b815260048101939093525194955090911692635471e2379260248084019391929182900301818387803b158015620007c057600080fd5b505af1158015620007d5573d6000803e3d6000fd5b5050505050505050565b336001600160a01b0382161462000831576040805162461bcd60e51b815260206004820152601160248201527024b73b30b634b21027b832b930ba34b7b960791b604482015290519081900360640190fd5b600480546001810182556000919091527f8a35acfbc15ff81a39ae7d344fd709f28e8600b4aa8c65c6b64bfe7fe36bd19b0180546001600160a01b0319166001600160a01b0392909216919091179055565b6200088d62000992565b6000546001600160a01b03908116911614620008f0576040805162461bcd60e51b815260206004820181905260248201527f4f776e61626c653a2063616c6c6572206973206e6f7420746865206f776e6572604482015290519081900360640190fd5b6001600160a01b038116620009375760405162461bcd60e51b815260040180806020018281038252602681526020018062001a956026913960400191505060405180910390fd5b600080546040516001600160a01b03808516939216917f8be0079c531659141344cd1fd0a4f28419497f9722a3daafe3b4186f6b6457e091a3600080546001600160a01b0319166001600160a01b0392909216919091179055565b3390565b6110f080620009a58339019056fe60806040523480156200001157600080fd5b50604051620010f0380380620010f0833981810160405260a08110156200003757600080fd5b81019080805160405193929190846401000000008211156200005857600080fd5b9083019060208201858111156200006e57600080fd5b82516401000000008111828201881017156200008957600080fd5b82525081516020918201929091019080838360005b83811015620000b85781810151838201526020016200009e565b50505050905090810190601f168015620000e65780820380516001836020036101000a031916815260200191505b50604052602001805160405193929190846401000000008211156200010a57600080fd5b9083019060208201858111156200012057600080fd5b82516401000000008111828201881017156200013b57600080fd5b82525081516020918201929091019080838360005b838110156200016a57818101518382015260200162000150565b50505050905090810190601f168015620001985780820380516001836020036101000a031916815260200191505b5060409081526020820151908201516060909201519093509091506000620001c86001600160e01b036200048416565b600080546001600160a01b0319166001600160a01b038316908117825560405192935091600080516020620010a3833981519152908290a350604080516000815260208082018084528251902088519093899301918291908401908083835b60208310620002485780518252601f19909201916020918201910162000227565b6001836020036101000a038019825116818451168082178552505050505050905001915050604051602081830303815290604052805190602001201415620002c6576040805162461bcd60e51b815260206004820152600c60248201526b092dcecc2d8d2c840d0c2e6d60a31b604482015290519081900360640190fd5b336001600160a01b0316816001600160a01b031663a87430ba336001600160a01b0316638da5cb5b6040518163ffffffff1660e01b815260040160206040518083038186803b1580156200031957600080fd5b505afa1580156200032e573d6000803e3d6000fd5b505050506040513d60208110156200034557600080fd5b5051604080516001600160e01b031960e085901b1681526001600160a01b039092166004830152516024808301926020929190829003018186803b1580156200038d57600080fd5b505afa158015620003a2573d6000803e3d6000fd5b505050506040513d6020811015620003b957600080fd5b50516001600160a01b031614620004025760405162461bcd60e51b815260040180806020018281038252602d815260200180620010c3602d913960400191505060405180910390fd5b84516200041790600190602088019062000590565b5083516200042d90600290602087019062000590565b506003839055600580546001600160a01b0319166001600160a01b038381169190911790915582166000908152600660205260409020805460ff19166001179055620004798262000489565b505050505062000632565b335b90565b6200049c6001600160e01b036200048416565b6000546001600160a01b03908116911614620004ff576040805162461bcd60e51b815260206004820181905260248201527f4f776e61626c653a2063616c6c6572206973206e6f7420746865206f776e6572604482015290519081900360640190fd5b6001600160a01b038116620005465760405162461bcd60e51b81526004018080602001828103825260268152602001806200107d6026913960400191505060405180910390fd5b600080546040516001600160a01b0380851693921691600080516020620010a383398151915291a3600080546001600160a01b0319166001600160a01b0392909216919091179055565b828054600181600116156101000203166002900490600052602060002090601f016020900481019282601f10620005d357805160ff191683800117855562000603565b8280016001018555821562000603579182015b8281111562000603578251825591602001919060010190620005e6565b506200061192915062000615565b5090565b6200048691905b808211156200061157600081556001016200061c565b610a3b80620006426000396000f3fe6080604052600436106100865760003560e01c8063715018a611610059578063715018a6146101c85780638da5cb5b146101dd578063a035b1fe1461020e578063d13319c414610235578063f2fde38b1461024a57610086565b806306fdde031461008b5780633bc5de30146101155780633ccfd60b146101a9578063466a9e75146101c0575b600080fd5b34801561009757600080fd5b506100a061027d565b6040805160208082528351818301528351919283929083019185019080838360005b838110156100da5781810151838201526020016100c2565b50505050905090810190601f1680156101075780820380516001836020036101000a031916815260200191505b509250505060405180910390f35b34801561012157600080fd5b5061012a610308565b6040518080602001838152602001828103825284818151815260200191508051906020019080838360005b8381101561016d578181015183820152602001610155565b50505050905090810190601f16801561019a5780820380516001836020036101000a031916815260200191505b50935050505060405180910390f35b3480156101b557600080fd5b506101be6103a6565b005b6101be61043f565b3480156101d457600080fd5b506101be6106f8565b3480156101e957600080fd5b506101f26107ac565b604080516001600160a01b039092168252519081900360200190f35b34801561021a57600080fd5b506102236107bb565b60408051918252519081900360200190f35b34801561024157600080fd5b506100a06107c1565b34801561025657600080fd5b506101be6004803603602081101561026d57600080fd5b50356001600160a01b03166108d1565b6002805460408051602060018416156101000260001901909316849004601f810184900484028201840190925281815292918301828280156103005780601f106102d557610100808354040283529160200191610300565b820191906000526020600020905b8154815290600101906020018083116102e357829003601f168201915b505050505081565b6003546002805460408051602060018416156101000260001901909316849004601f810184900484028201840190925281815260609460009493909284918301828280156103975780601f1061036c57610100808354040283529160200191610397565b820191906000526020600020905b81548152906001019060200180831161037a57829003601f168201915b50505050509150915091509091565b6103ae6109db565b6000546001600160a01b03908116911614610410576040805162461bcd60e51b815260206004820181905260248201527f4f776e61626c653a2063616c6c6572206973206e6f7420746865206f776e6572604482015290519081900360640190fd5b60405133904780156108fc02916000818181858888f1935050505015801561043c573d6000803e3d6000fd5b50565b600354341015610496576040805162461bcd60e51b815260206004820152601960248201527f506c656173652050617920636f6d706c65746520707269636500000000000000604482015290519081900360640190fd5b6005546040805163543a185d60e11b815233600482015290516000926001600160a01b03169163a87430ba916024808301926020929190829003018186803b1580156104e157600080fd5b505afa1580156104f5573d6000803e3d6000fd5b505050506040513d602081101561050b57600080fd5b50516001600160a01b0316141561055f576040805162461bcd60e51b8152602060048201526013602482015272155cd95c88139bdd08149959da5cdd195c9959606a1b604482015290519081900360640190fd5b3360009081526006602052604090205460ff16156105bb576040805162461bcd60e51b8152602060048201526014602482015273135d5cda58c8185b1c9958591e48189bdd59da1d60621b604482015290519081900360640190fd5b6003543411156105f7576003546040513391340380156108fc02916000818181858888f193505050501580156105f5573d6000803e3d6000fd5b505b33600081815260066020526040808220805460ff19166001179055600554815163c3c5a54760e01b815260048101949094528151929384936001600160a01b03929092169263c3c5a54792602480840193829003018186803b15801561065c57600080fd5b505afa158015610670573d6000803e3d6000fd5b505050506040513d604081101561068657600080fd5b5080516020909101516040805163712dc5af60e11b815230600482015290519194509192506001600160a01b0384169163e25b8b5e91602480830192600092919082900301818387803b1580156106dc57600080fd5b505af11580156106f0573d6000803e3d6000fd5b505050505050565b6107006109db565b6000546001600160a01b03908116911614610762576040805162461bcd60e51b815260206004820181905260248201527f4f776e61626c653a2063616c6c6572206973206e6f7420746865206f776e6572604482015290519081900360640190fd5b600080546040516001600160a01b03909116907f8be0079c531659141344cd1fd0a4f28419497f9722a3daafe3b4186f6b6457e0908390a3600080546001600160a01b0319169055565b6000546001600160a01b031690565b60035481565b3360009081526006602052604090205460609060ff16806107fa57506107e56107ac565b6001600160a01b0316336001600160a01b0316145b610842576040805162461bcd60e51b8152602060048201526014602482015273506c656173652042757920746865204d7573696360601b604482015290519081900360640190fd5b60018054604080516020600284861615610100026000190190941693909304601f810184900484028201840190925281815292918301828280156108c75780601f1061089c576101008083540402835291602001916108c7565b820191906000526020600020905b8154815290600101906020018083116108aa57829003601f168201915b5050505050905090565b6108d96109db565b6000546001600160a01b0390811691161461093b576040805162461bcd60e51b815260206004820181905260248201527f4f776e61626c653a2063616c6c6572206973206e6f7420746865206f776e6572604482015290519081900360640190fd5b6001600160a01b0381166109805760405162461bcd60e51b81526004018080602001828103825260268152602001806109e06026913960400191505060405180910390fd5b600080546040516001600160a01b03808516939216917f8be0079c531659141344cd1fd0a4f28419497f9722a3daafe3b4186f6b6457e091a3600080546001600160a01b0319166001600160a01b0392909216919091179055565b339056fe4f776e61626c653a206e6577206f776e657220697320746865207a65726f2061646472657373a2646970667358221220622cd46ef438a41b8f43bb5cb45e9e40a0dcb3e13a496d5e36c5100249628a6864736f6c634300060000334f776e61626c653a206e6577206f776e657220697320746865207a65726f20616464726573738be0079c531659141344cd1fd0a4f28419497f9722a3daafe3b4186f6b6457e04f6e6c7920526567697374657265642075736572732063616e20696e766f6b65207468652066756e6374696f6e4f776e61626c653a206e6577206f776e657220697320746865207a65726f2061646472657373a26469706673582212204a309af61316daacfa38dd6c45e74b50aa28c9c6188200075757f36e360cc7c764736f6c634300060000334f776e61626c653a206e6577206f776e657220697320746865207a65726f20616464726573738be0079c531659141344cd1fd0a4f28419497f9722a3daafe3b4186f6b6457e0a2646970667358221220df98b7a35a323675575199d5cd3d1f39948e839976ac4acf558cb787f52b689b64736f6c63430006000033",
  "source": "pragma solidity >= 0.4.0 < 0.7.0;\n\nimport \"./UserContract.sol\";\nimport \"./MusicContract.sol\";\n\n/**\n * @title Factory Contract\n * @author Samarth Bhadane\n * @notice This contract is used as a factory for user contract and for storing address of all music contracts deployed.\n */\n\ncontract Factory{\n    \n    mapping (address => UserContract) public users;\n    mapping (string => UserContract) public userNames;\n    MusicContract[] musicLibrary;\n    \n    /**\n     * @notice Check if an address provided is a contract. If yes, return true else return false.\n     * @dev This function will return true if an address is a smart contract, else return false.\n     * @param _address is address for which check is to be done.\n     * @return boolean value (true or false).\n     */\n    function isContract(address _address) private view returns (bool){\n        uint32 size;\n        assembly {\n            size := extcodesize(_address)\n        }\n        return (size > 0);\n    }\n    \n    /**\n     * @notice Check if an address provided has Registered. If yes, return true, else false.\n     * @dev This function will return true if an address has registered using addUser(), else return false.\n     * @param _address is for which check is to be done.\n     * @return boolean value (true or false).\n     */\n    function isRegistered(address _address) public view returns(bool, UserContract){\n        return ((address(users[_address]) != address(0)), users[_address]);\n    }\n\n    /**\n     * @notice This function is used to Register new user.\n     * @dev This function will add a new user. The transaction will be revoked if a Smart Contract invokes this function.\n     *      After successful execution, the value of users[msg.sender] is set to true which shows successful registration\n     *      of user. If an user who has already registered invokes this function, the transaction will be revoked.\n     * @param _name is string. This name is assigned to UserContract.\n     * @return Returns address of deployed UserContract.\n     */\n    function addUser(string memory _name) public returns(UserContract){\n        require(!isContract(msg.sender), \"Contract can't be a User\");\n        require(users[msg.sender] == UserContract(address(0)), \"User already exists\");\n        require(userNames[_name] == UserContract(address(0)), \"Name already in Use\");\n        \n        UserContract userContract = new UserContract(_name, msg.sender);\n        userNames[_name] = userContract;\n        users[msg.sender] = userContract;\n        return userContract;\n    }\n    \n    /**\n     * @notice This function adds address to musicLibrary[] on addition of new music by user.\n     * @param _musicContract is instance of MusicContract which is to be added.\n     */\n    function addMusicToLibrary(MusicContract _musicContract) public{\n        musicLibrary.push(_musicContract);\n    }\n    \n    /**\n     * @return Returns the array musicLibrary[] which is collection musics.\n     */\n    function getLibrary() public view returns(MusicContract[] memory){\n        return musicLibrary;\n    }\n}",
  "sourcePath": "/home/samarth/Blockchain/Dapps/music-stream/contracts/Factory.sol",
  "compiler": {
    "name": "solc",
    "version": "0.6.0+commit.26b70077.Emscripten.clang"
  },
  "schemaVersion": "3.3.1",
  "updatedAt": "2020-12-03T04:33:40.215Z",
  "devdoc": {
    "author": "Samarth Bhadane",
    "methods": {
      "addMusicToLibrary(address)": {
        "params": {
          "_musicContract": "is instance of MusicContract which is to be added."
        }
      },
      "addUser(string)": {
        "details": "This function will add a new user. The transaction will be revoked if a Smart Contract invokes this function.     After successful execution, the value of users[msg.sender] is set to true which shows successful registration     of user. If an user who has already registered invokes this function, the transaction will be revoked.",
        "params": {
          "_name": "is string. This name is assigned to UserContract."
        },
        "returns": {
          "_0": "Returns address of deployed UserContract."
        }
      },
      "isRegistered(address)": {
        "details": "This function will return true if an address has registered using addUser(), else return false.",
        "params": {
          "_address": "is for which check is to be done."
        },
        "returns": {
          "_0": "boolean value (true or false)."
        }
      }
    },
    "title": "Factory Contract"
  },
  "userdoc": {
    "methods": {
      "addMusicToLibrary(address)": {
        "notice": "This function adds address to musicLibrary[] on addition of new music by user."
      },
      "addUser(string)": {
        "notice": "This function is used to Register new user."
      },
      "isRegistered(address)": {
        "notice": "Check if an address provided has Registered. If yes, return true, else false."
      }
    },
    "notice": "This contract is used as a factory for user contract and for storing address of all music contracts deployed."
  }
}