{
  "contractName": "MusicContract",
  "abi": [
    {
      "inputs": [
        {
          "internalType": "string",
          "name": "_hash",
          "type": "string"
        },
        {
          "internalType": "string",
          "name": "_name",
          "type": "string"
        },
        {
          "internalType": "uint256",
          "name": "_price",
          "type": "uint256"
        },
        {
          "internalType": "address",
          "name": "_owner",
          "type": "address"
        },
        {
          "internalType": "contract Factory",
          "name": "_factory",
          "type": "address"
        }
      ],
      "stateMutability": "nonpayable",
      "type": "constructor"
    },
    {
      "anonymous": false,
      "inputs": [
        {
          "indexed": true,
          "internalType": "address",
          "name": "previousOwner",
          "type": "address"
        },
        {
          "indexed": true,
          "internalType": "address",
          "name": "newOwner",
          "type": "address"
        }
      ],
      "name": "OwnershipTransferred",
      "type": "event"
    },
    {
      "inputs": [],
      "name": "name",
      "outputs": [
        {
          "internalType": "string",
          "name": "",
          "type": "string"
        }
      ],
      "stateMutability": "view",
      "type": "function"
    },
    {
      "inputs": [],
      "name": "owner",
      "outputs": [
        {
          "internalType": "address",
          "name": "",
          "type": "address"
        }
      ],
      "stateMutability": "view",
      "type": "function"
    },
    {
      "inputs": [],
      "name": "price",
      "outputs": [
        {
          "internalType": "uint256",
          "name": "",
          "type": "uint256"
        }
      ],
      "stateMutability": "view",
      "type": "function"
    },
    {
      "inputs": [],
      "name": "renounceOwnership",
      "outputs": [],
      "stateMutability": "nonpayable",
      "type": "function"
    },
    {
      "inputs": [
        {
          "internalType": "address",
          "name": "newOwner",
          "type": "address"
        }
      ],
      "name": "transferOwnership",
      "outputs": [],
      "stateMutability": "nonpayable",
      "type": "function"
    },
    {
      "inputs": [],
      "name": "buyMusic",
      "outputs": [],
      "stateMutability": "payable",
      "type": "function"
    },
    {
      "inputs": [],
      "name": "getHash",
      "outputs": [
        {
          "internalType": "string",
          "name": "",
          "type": "string"
        }
      ],
      "stateMutability": "view",
      "type": "function"
    },
    {
      "inputs": [],
      "name": "getData",
      "outputs": [
        {
          "internalType": "string",
          "name": "",
          "type": "string"
        },
        {
          "internalType": "uint256",
          "name": "",
          "type": "uint256"
        }
      ],
      "stateMutability": "view",
      "type": "function"
    },
    {
      "inputs": [],
      "name": "withdraw",
      "outputs": [],
      "stateMutability": "nonpayable",
      "type": "function"
    }
  ],
  "bytecode": "0x60806040523480156200001157600080fd5b50604051620010f0380380620010f0833981810160405260a08110156200003757600080fd5b81019080805160405193929190846401000000008211156200005857600080fd5b9083019060208201858111156200006e57600080fd5b82516401000000008111828201881017156200008957600080fd5b82525081516020918201929091019080838360005b83811015620000b85781810151838201526020016200009e565b50505050905090810190601f168015620000e65780820380516001836020036101000a031916815260200191505b50604052602001805160405193929190846401000000008211156200010a57600080fd5b9083019060208201858111156200012057600080fd5b82516401000000008111828201881017156200013b57600080fd5b82525081516020918201929091019080838360005b838110156200016a57818101518382015260200162000150565b50505050905090810190601f168015620001985780820380516001836020036101000a031916815260200191505b5060409081526020820151908201516060909201519093509091506000620001c86001600160e01b036200048416565b600080546001600160a01b0319166001600160a01b038316908117825560405192935091600080516020620010a3833981519152908290a350604080516000815260208082018084528251902088519093899301918291908401908083835b60208310620002485780518252601f19909201916020918201910162000227565b6001836020036101000a038019825116818451168082178552505050505050905001915050604051602081830303815290604052805190602001201415620002c6576040805162461bcd60e51b815260206004820152600c60248201526b092dcecc2d8d2c840d0c2e6d60a31b604482015290519081900360640190fd5b336001600160a01b0316816001600160a01b031663a87430ba336001600160a01b0316638da5cb5b6040518163ffffffff1660e01b815260040160206040518083038186803b1580156200031957600080fd5b505afa1580156200032e573d6000803e3d6000fd5b505050506040513d60208110156200034557600080fd5b5051604080516001600160e01b031960e085901b1681526001600160a01b039092166004830152516024808301926020929190829003018186803b1580156200038d57600080fd5b505afa158015620003a2573d6000803e3d6000fd5b505050506040513d6020811015620003b957600080fd5b50516001600160a01b031614620004025760405162461bcd60e51b815260040180806020018281038252602d815260200180620010c3602d913960400191505060405180910390fd5b84516200041790600190602088019062000590565b5083516200042d90600290602087019062000590565b506003839055600580546001600160a01b0319166001600160a01b038381169190911790915582166000908152600660205260409020805460ff19166001179055620004798262000489565b505050505062000632565b335b90565b6200049c6001600160e01b036200048416565b6000546001600160a01b03908116911614620004ff576040805162461bcd60e51b815260206004820181905260248201527f4f776e61626c653a2063616c6c6572206973206e6f7420746865206f776e6572604482015290519081900360640190fd5b6001600160a01b038116620005465760405162461bcd60e51b81526004018080602001828103825260268152602001806200107d6026913960400191505060405180910390fd5b600080546040516001600160a01b0380851693921691600080516020620010a383398151915291a3600080546001600160a01b0319166001600160a01b0392909216919091179055565b828054600181600116156101000203166002900490600052602060002090601f016020900481019282601f10620005d357805160ff191683800117855562000603565b8280016001018555821562000603579182015b8281111562000603578251825591602001919060010190620005e6565b506200061192915062000615565b5090565b6200048691905b808211156200061157600081556001016200061c565b610a3b80620006426000396000f3fe6080604052600436106100865760003560e01c8063715018a611610059578063715018a6146101c85780638da5cb5b146101dd578063a035b1fe1461020e578063d13319c414610235578063f2fde38b1461024a57610086565b806306fdde031461008b5780633bc5de30146101155780633ccfd60b146101a9578063466a9e75146101c0575b600080fd5b34801561009757600080fd5b506100a061027d565b6040805160208082528351818301528351919283929083019185019080838360005b838110156100da5781810151838201526020016100c2565b50505050905090810190601f1680156101075780820380516001836020036101000a031916815260200191505b509250505060405180910390f35b34801561012157600080fd5b5061012a610308565b6040518080602001838152602001828103825284818151815260200191508051906020019080838360005b8381101561016d578181015183820152602001610155565b50505050905090810190601f16801561019a5780820380516001836020036101000a031916815260200191505b50935050505060405180910390f35b3480156101b557600080fd5b506101be6103a6565b005b6101be61043f565b3480156101d457600080fd5b506101be6106f8565b3480156101e957600080fd5b506101f26107ac565b604080516001600160a01b039092168252519081900360200190f35b34801561021a57600080fd5b506102236107bb565b60408051918252519081900360200190f35b34801561024157600080fd5b506100a06107c1565b34801561025657600080fd5b506101be6004803603602081101561026d57600080fd5b50356001600160a01b03166108d1565b6002805460408051602060018416156101000260001901909316849004601f810184900484028201840190925281815292918301828280156103005780601f106102d557610100808354040283529160200191610300565b820191906000526020600020905b8154815290600101906020018083116102e357829003601f168201915b505050505081565b6003546002805460408051602060018416156101000260001901909316849004601f810184900484028201840190925281815260609460009493909284918301828280156103975780601f1061036c57610100808354040283529160200191610397565b820191906000526020600020905b81548152906001019060200180831161037a57829003601f168201915b50505050509150915091509091565b6103ae6109db565b6000546001600160a01b03908116911614610410576040805162461bcd60e51b815260206004820181905260248201527f4f776e61626c653a2063616c6c6572206973206e6f7420746865206f776e6572604482015290519081900360640190fd5b60405133904780156108fc02916000818181858888f1935050505015801561043c573d6000803e3d6000fd5b50565b600354341015610496576040805162461bcd60e51b815260206004820152601960248201527f506c656173652050617920636f6d706c65746520707269636500000000000000604482015290519081900360640190fd5b6005546040805163543a185d60e11b815233600482015290516000926001600160a01b03169163a87430ba916024808301926020929190829003018186803b1580156104e157600080fd5b505afa1580156104f5573d6000803e3d6000fd5b505050506040513d602081101561050b57600080fd5b50516001600160a01b0316141561055f576040805162461bcd60e51b8152602060048201526013602482015272155cd95c88139bdd08149959da5cdd195c9959606a1b604482015290519081900360640190fd5b3360009081526006602052604090205460ff16156105bb576040805162461bcd60e51b8152602060048201526014602482015273135d5cda58c8185b1c9958591e48189bdd59da1d60621b604482015290519081900360640190fd5b6003543411156105f7576003546040513391340380156108fc02916000818181858888f193505050501580156105f5573d6000803e3d6000fd5b505b33600081815260066020526040808220805460ff19166001179055600554815163c3c5a54760e01b815260048101949094528151929384936001600160a01b03929092169263c3c5a54792602480840193829003018186803b15801561065c57600080fd5b505afa158015610670573d6000803e3d6000fd5b505050506040513d604081101561068657600080fd5b5080516020909101516040805163712dc5af60e11b815230600482015290519194509192506001600160a01b0384169163e25b8b5e91602480830192600092919082900301818387803b1580156106dc57600080fd5b505af11580156106f0573d6000803e3d6000fd5b505050505050565b6107006109db565b6000546001600160a01b03908116911614610762576040805162461bcd60e51b815260206004820181905260248201527f4f776e61626c653a2063616c6c6572206973206e6f7420746865206f776e6572604482015290519081900360640190fd5b600080546040516001600160a01b03909116907f8be0079c531659141344cd1fd0a4f28419497f9722a3daafe3b4186f6b6457e0908390a3600080546001600160a01b0319169055565b6000546001600160a01b031690565b60035481565b3360009081526006602052604090205460609060ff16806107fa57506107e56107ac565b6001600160a01b0316336001600160a01b0316145b610842576040805162461bcd60e51b8152602060048201526014602482015273506c656173652042757920746865204d7573696360601b604482015290519081900360640190fd5b60018054604080516020600284861615610100026000190190941693909304601f810184900484028201840190925281815292918301828280156108c75780601f1061089c576101008083540402835291602001916108c7565b820191906000526020600020905b8154815290600101906020018083116108aa57829003601f168201915b5050505050905090565b6108d96109db565b6000546001600160a01b0390811691161461093b576040805162461bcd60e51b815260206004820181905260248201527f4f776e61626c653a2063616c6c6572206973206e6f7420746865206f776e6572604482015290519081900360640190fd5b6001600160a01b0381166109805760405162461bcd60e51b81526004018080602001828103825260268152602001806109e06026913960400191505060405180910390fd5b600080546040516001600160a01b03808516939216917f8be0079c531659141344cd1fd0a4f28419497f9722a3daafe3b4186f6b6457e091a3600080546001600160a01b0319166001600160a01b0392909216919091179055565b339056fe4f776e61626c653a206e6577206f776e657220697320746865207a65726f2061646472657373a2646970667358221220622cd46ef438a41b8f43bb5cb45e9e40a0dcb3e13a496d5e36c5100249628a6864736f6c634300060000334f776e61626c653a206e6577206f776e657220697320746865207a65726f20616464726573738be0079c531659141344cd1fd0a4f28419497f9722a3daafe3b4186f6b6457e04f6e6c7920526567697374657265642075736572732063616e20696e766f6b65207468652066756e6374696f6e",
  "source": "pragma solidity >= 0.4.0 < 0.7.0;\n\nimport \"@openzeppelin/contracts/access/Ownable.sol\";\nimport \"./Factory.sol\";\nimport \"./UserContract.sol\";\n\n/**\n * @title Music contract\n * @author Samarth Bhadane\n * @notice This is a contract to interact with song details.\n */\ncontract MusicContract is Ownable {\n    \n    string private hash;\n    string public name;\n    uint256 public price;\n    address payable account;\n    Factory factory;\n    \n    mapping(address => bool) buyer;\n    \n    /**\n     * @notice constructor for Music Contract\n     * @param _hash IPFS Hash of the song.\n     * @param _name name of the song.\n     * @param _owner address of owner of the contract.\n     * @param _factory instance of Factory contract.\n     */\n    constructor(string memory _hash, string memory _name, uint _price, address _owner, Factory _factory) public{\n        require(keccak256(abi.encodePacked(_hash)) != keccak256(abi.encodePacked(\"\")), \"Invalid hash\");\n        require(_factory.users(UserContract(msg.sender).owner())== UserContract(msg.sender), \"Only Registered users can invoke the function\");\n        hash = _hash;\n        name = _name;\n        price = _price;\n        factory = _factory;\n        buyer[_owner] = true;\n        transferOwnership(_owner);\n        \n    }\n    \n    /**\n     * @notice This is the function where a Registered User can buy music.\n     * @dev The value sent by user should be >= price of music. If the value sent > price,\n     *      Appropriate value must be returned to user.\n     *      An User must be Registered through factory contract in order to call this function.\n     */\n    function buyMusic() public payable{\n        require(msg.value >= price, \"Please Pay complete price\");\n        require(address(factory.users(msg.sender)) != address(0), \"User Not Registered\");\n        require(buyer[msg.sender] == false, \"Music already bought\");\n        \n        if(msg.value > price){\n            (msg.sender).transfer(msg.value - price);\n        }\n        buyer[msg.sender] = true;\n        UserContract user;\n        bool registered;\n        (registered, user) = factory.isRegistered(msg.sender);\n        user.updateOwnedMusic(this);\n    }\n    \n    /**\n     * @notice The following function is used to get hash of song.\n     * @dev In order to get hash, the user must buy the music.\n     */\n    \n    function getHash() public view returns(string memory){\n        require(buyer[msg.sender] || msg.sender == owner(), \"Please Buy the Music\");\n        return hash;\n    }\n    \n    /**\n     * @notice The following function is used to get Data i.e name and price of song.\n     */\n    function getData() public view returns(string memory, uint){\n        return (name, price);\n    }\n    \n    /**\n     * @notice The following function is used by owner to withdraw funds from smart contract\n     */\n    function withdraw() public onlyOwner{\n        (msg.sender).transfer(address(this).balance);\n    }\n}",
  "sourcePath": "/home/samarth/Blockchain/Dapps/music-stream/contracts/MusicContract.sol",
  "compiler": {
    "name": "solc",
    "version": "0.6.0+commit.26b70077.Emscripten.clang"
  },
  "schemaVersion": "3.3.1",
  "updatedAt": "2020-12-03T04:33:40.229Z",
  "devdoc": {
    "author": "Samarth Bhadane",
    "methods": {
      "buyMusic()": {
        "details": "The value sent by user should be >= price of music. If the value sent > price,     Appropriate value must be returned to user.     An User must be Registered through factory contract in order to call this function."
      },
      "constructor": {
        "params": {
          "_factory": "instance of Factory contract.",
          "_hash": "IPFS Hash of the song.",
          "_name": "name of the song.",
          "_owner": "address of owner of the contract."
        }
      },
      "getHash()": {
        "details": "In order to get hash, the user must buy the music."
      },
      "owner()": {
        "details": "Returns the address of the current owner."
      },
      "renounceOwnership()": {
        "details": "Leaves the contract without owner. It will not be possible to call `onlyOwner` functions anymore. Can only be called by the current owner.     * NOTE: Renouncing ownership will leave the contract without an owner, thereby removing any functionality that is only available to the owner."
      },
      "transferOwnership(address)": {
        "details": "Transfers ownership of the contract to a new account (`newOwner`). Can only be called by the current owner."
      }
    },
    "title": "Music contract"
  },
  "userdoc": {
    "methods": {
      "buyMusic()": {
        "notice": "This is the function where a Registered User can buy music."
      },
      "constructor": "constructor for Music Contract",
      "getData()": {
        "notice": "The following function is used to get Data i.e name and price of song."
      },
      "getHash()": {
        "notice": "The following function is used to get hash of song."
      },
      "withdraw()": {
        "notice": "The following function is used by owner to withdraw funds from smart contract"
      }
    },
    "notice": "This is a contract to interact with song details."
  }
}