{
  "contractName": "TestFactory",
  "abi": [
    {
      "inputs": [
        {
          "internalType": "contract Factory",
          "name": "_factory",
          "type": "address"
        }
      ],
      "name": "addUser",
      "outputs": [],
      "stateMutability": "nonpayable",
      "type": "function"
    }
  ],
  "bytecode": "0x608060405234801561001057600080fd5b50610117806100206000396000f3fe6080604052348015600f57600080fd5b506004361060285760003560e01c8063421b2d8b14602d575b600080fd5b605060048036036020811015604157600080fd5b50356001600160a01b03166052565b005b60408051630c5c13ad60e11b8152602060048201819052600c60248301526b5465737420466163746f727960a01b604483015291516001600160a01b038416926318b8275a92606480820193918290030181600087803b15801560b457600080fd5b505af115801560c7573d6000803e3d6000fd5b505050506040513d602081101560dc57600080fd5b50505056fea2646970667358221220a03a28ada6f14970d73c7d1086664adfa65c0da1f5719ac66c78e2de42bbcd6264736f6c63430006000033",
  "source": "pragma solidity >= 0.4.0 < 0.7.0;\n\nimport './Factory.sol';\n\ncontract TestFactory{\n\n    function addUser(Factory _factory) public {\n\n        _factory.addUser(\"Test Factory\");\n    }\n}",
  "sourcePath": "/home/samarth/Blockchain/Dapps/music-stream/contracts/TestFactory.sol",
  "compiler": {
    "name": "solc",
    "version": "0.6.0+commit.26b70077.Emscripten.clang"
  },
  "schemaVersion": "3.3.1",
  "updatedAt": "2020-11-30T14:38:09.051Z",
  "devdoc": {
    "methods": {}
  },
  "userdoc": {
    "methods": {}
  }
}